{
  "_format": "hh-sol-artifact-1",
  "contractName": "NFT",
  "sourceName": "contracts/NFT.sol",
  "abi": [
    {
      "inputs": [
        {
          "internalType": "string",
          "name": "name_",
          "type": "string"
        },
        {
          "internalType": "string",
          "name": "symbol_",
          "type": "string"
        },
        {
          "internalType": "string",
          "name": "baseURI_",
          "type": "string"
        },
        {
          "internalType": "address",
          "name": "launchpad",
          "type": "address"
        },
        {
          "internalType": "uint256",
          "name": "_maxSupply",
          "type": "uint256"
        }
      ],
      "stateMutability": "nonpayable",
      "type": "constructor"
    },
    {
      "anonymous": false,
      "inputs": [
        {
          "indexed": true,
          "internalType": "address",
          "name": "owner",
          "type": "address"
        },
        {
          "indexed": true,
          "internalType": "address",
          "name": "approved",
          "type": "address"
        },
        {
          "indexed": true,
          "internalType": "uint256",
          "name": "tokenId",
          "type": "uint256"
        }
      ],
      "name": "Approval",
      "type": "event"
    },
    {
      "anonymous": false,
      "inputs": [
        {
          "indexed": true,
          "internalType": "address",
          "name": "owner",
          "type": "address"
        },
        {
          "indexed": true,
          "internalType": "address",
          "name": "operator",
          "type": "address"
        },
        {
          "indexed": false,
          "internalType": "bool",
          "name": "approved",
          "type": "bool"
        }
      ],
      "name": "ApprovalForAll",
      "type": "event"
    },
    {
      "anonymous": false,
      "inputs": [
        {
          "indexed": true,
          "internalType": "address",
          "name": "previousOwner",
          "type": "address"
        },
        {
          "indexed": true,
          "internalType": "address",
          "name": "newOwner",
          "type": "address"
        }
      ],
      "name": "OwnershipTransferred",
      "type": "event"
    },
    {
      "anonymous": false,
      "inputs": [
        {
          "indexed": true,
          "internalType": "address",
          "name": "from",
          "type": "address"
        },
        {
          "indexed": true,
          "internalType": "address",
          "name": "to",
          "type": "address"
        },
        {
          "indexed": true,
          "internalType": "uint256",
          "name": "tokenId",
          "type": "uint256"
        }
      ],
      "name": "Transfer",
      "type": "event"
    },
    {
      "stateMutability": "payable",
      "type": "fallback"
    },
    {
      "inputs": [],
      "name": "LAUNCHPAD",
      "outputs": [
        {
          "internalType": "address",
          "name": "",
          "type": "address"
        }
      ],
      "stateMutability": "view",
      "type": "function"
    },
    {
      "inputs": [],
      "name": "LAUNCH_MAX_SUPPLY",
      "outputs": [
        {
          "internalType": "uint256",
          "name": "",
          "type": "uint256"
        }
      ],
      "stateMutability": "view",
      "type": "function"
    },
    {
      "inputs": [],
      "name": "LAUNCH_SUPPLY",
      "outputs": [
        {
          "internalType": "uint256",
          "name": "",
          "type": "uint256"
        }
      ],
      "stateMutability": "view",
      "type": "function"
    },
    {
      "inputs": [
        {
          "internalType": "address",
          "name": "to",
          "type": "address"
        },
        {
          "internalType": "uint256",
          "name": "tokenId",
          "type": "uint256"
        }
      ],
      "name": "approve",
      "outputs": [],
      "stateMutability": "nonpayable",
      "type": "function"
    },
    {
      "inputs": [
        {
          "internalType": "address",
          "name": "owner",
          "type": "address"
        }
      ],
      "name": "balanceOf",
      "outputs": [
        {
          "internalType": "uint256",
          "name": "",
          "type": "uint256"
        }
      ],
      "stateMutability": "view",
      "type": "function"
    },
    {
      "inputs": [],
      "name": "baseURI",
      "outputs": [
        {
          "internalType": "string",
          "name": "",
          "type": "string"
        }
      ],
      "stateMutability": "view",
      "type": "function"
    },
    {
      "inputs": [],
      "name": "createToken",
      "outputs": [],
      "stateMutability": "payable",
      "type": "function"
    },
    {
      "inputs": [
        {
          "internalType": "uint256",
          "name": "tokenId",
          "type": "uint256"
        }
      ],
      "name": "getApproved",
      "outputs": [
        {
          "internalType": "address",
          "name": "",
          "type": "address"
        }
      ],
      "stateMutability": "view",
      "type": "function"
    },
    {
      "inputs": [],
      "name": "getLaunchpadSupply",
      "outputs": [
        {
          "internalType": "uint256",
          "name": "",
          "type": "uint256"
        }
      ],
      "stateMutability": "view",
      "type": "function"
    },
    {
      "inputs": [],
      "name": "getListingPrice",
      "outputs": [
        {
          "internalType": "uint256",
          "name": "",
          "type": "uint256"
        }
      ],
      "stateMutability": "view",
      "type": "function"
    },
    {
      "inputs": [],
      "name": "getMaxLaunchpadSupply",
      "outputs": [
        {
          "internalType": "uint256",
          "name": "",
          "type": "uint256"
        }
      ],
      "stateMutability": "view",
      "type": "function"
    },
    {
      "inputs": [
        {
          "internalType": "address",
          "name": "owner",
          "type": "address"
        },
        {
          "internalType": "address",
          "name": "operator",
          "type": "address"
        }
      ],
      "name": "isApprovedForAll",
      "outputs": [
        {
          "internalType": "bool",
          "name": "",
          "type": "bool"
        }
      ],
      "stateMutability": "view",
      "type": "function"
    },
    {
      "inputs": [
        {
          "internalType": "address",
          "name": "to",
          "type": "address"
        },
        {
          "internalType": "uint256",
          "name": "size",
          "type": "uint256"
        }
      ],
      "name": "mintTo",
      "outputs": [],
      "stateMutability": "nonpayable",
      "type": "function"
    },
    {
      "inputs": [],
      "name": "name",
      "outputs": [
        {
          "internalType": "string",
          "name": "",
          "type": "string"
        }
      ],
      "stateMutability": "view",
      "type": "function"
    },
    {
      "inputs": [],
      "name": "owner",
      "outputs": [
        {
          "internalType": "address",
          "name": "",
          "type": "address"
        }
      ],
      "stateMutability": "view",
      "type": "function"
    },
    {
      "inputs": [
        {
          "internalType": "uint256",
          "name": "tokenId",
          "type": "uint256"
        }
      ],
      "name": "ownerOf",
      "outputs": [
        {
          "internalType": "address",
          "name": "",
          "type": "address"
        }
      ],
      "stateMutability": "view",
      "type": "function"
    },
    {
      "inputs": [],
      "name": "renounceOwnership",
      "outputs": [],
      "stateMutability": "nonpayable",
      "type": "function"
    },
    {
      "inputs": [
        {
          "internalType": "address",
          "name": "from",
          "type": "address"
        },
        {
          "internalType": "address",
          "name": "to",
          "type": "address"
        },
        {
          "internalType": "uint256",
          "name": "tokenId",
          "type": "uint256"
        }
      ],
      "name": "safeTransferFrom",
      "outputs": [],
      "stateMutability": "nonpayable",
      "type": "function"
    },
    {
      "inputs": [
        {
          "internalType": "address",
          "name": "from",
          "type": "address"
        },
        {
          "internalType": "address",
          "name": "to",
          "type": "address"
        },
        {
          "internalType": "uint256",
          "name": "tokenId",
          "type": "uint256"
        },
        {
          "internalType": "bytes",
          "name": "data",
          "type": "bytes"
        }
      ],
      "name": "safeTransferFrom",
      "outputs": [],
      "stateMutability": "nonpayable",
      "type": "function"
    },
    {
      "inputs": [
        {
          "internalType": "address",
          "name": "operator",
          "type": "address"
        },
        {
          "internalType": "bool",
          "name": "approved",
          "type": "bool"
        }
      ],
      "name": "setApprovalForAll",
      "outputs": [],
      "stateMutability": "nonpayable",
      "type": "function"
    },
    {
      "inputs": [
        {
          "internalType": "string",
          "name": "_newURI",
          "type": "string"
        }
      ],
      "name": "setBaseURI",
      "outputs": [],
      "stateMutability": "nonpayable",
      "type": "function"
    },
    {
      "inputs": [],
      "name": "suffix",
      "outputs": [
        {
          "internalType": "string",
          "name": "",
          "type": "string"
        }
      ],
      "stateMutability": "view",
      "type": "function"
    },
    {
      "inputs": [
        {
          "internalType": "bytes4",
          "name": "interfaceId",
          "type": "bytes4"
        }
      ],
      "name": "supportsInterface",
      "outputs": [
        {
          "internalType": "bool",
          "name": "",
          "type": "bool"
        }
      ],
      "stateMutability": "view",
      "type": "function"
    },
    {
      "inputs": [],
      "name": "symbol",
      "outputs": [
        {
          "internalType": "string",
          "name": "",
          "type": "string"
        }
      ],
      "stateMutability": "view",
      "type": "function"
    },
    {
      "inputs": [
        {
          "internalType": "uint256",
          "name": "tokenId",
          "type": "uint256"
        }
      ],
      "name": "tokenURI",
      "outputs": [
        {
          "internalType": "string",
          "name": "",
          "type": "string"
        }
      ],
      "stateMutability": "view",
      "type": "function"
    },
    {
      "inputs": [
        {
          "internalType": "address",
          "name": "from",
          "type": "address"
        },
        {
          "internalType": "address",
          "name": "to",
          "type": "address"
        },
        {
          "internalType": "uint256",
          "name": "tokenId",
          "type": "uint256"
        }
      ],
      "name": "transferFrom",
      "outputs": [],
      "stateMutability": "nonpayable",
      "type": "function"
    },
    {
      "inputs": [
        {
          "internalType": "address",
          "name": "newOwner",
          "type": "address"
        }
      ],
      "name": "transferOwnership",
      "outputs": [],
      "stateMutability": "nonpayable",
      "type": "function"
    },
    {
      "inputs": [],
      "name": "withdraw",
      "outputs": [],
      "stateMutability": "payable",
      "type": "function"
    },
    {
      "stateMutability": "payable",
      "type": "receive"
    }
  ],
  "bytecode": "0x60806040526658d15e17628000600a553480156200001c57600080fd5b506040516200208e3803806200208e8339810160408190526200003f916200026b565b84846200004c33620000be565b8151620000619060019060208501906200010e565b508051620000779060029060208401906200010e565b505083516200008f9150600b9060208601906200010e565b50600f80546001600160a01b0319166001600160a01b039390931692909217909155600d55506200037d915050565b600080546001600160a01b038381166001600160a01b0319831681178455604051919092169283917f8be0079c531659141344cd1fd0a4f28419497f9722a3daafe3b4186f6b6457e09190a35050565b8280546200011c906200032a565b90600052602060002090601f0160209004810192826200014057600085556200018b565b82601f106200015b57805160ff19168380011785556200018b565b828001600101855582156200018b579182015b828111156200018b5782518255916020019190600101906200016e565b50620001999291506200019d565b5090565b5b808211156200019957600081556001016200019e565b600082601f830112620001c657600080fd5b81516001600160401b0380821115620001e357620001e362000367565b604051601f8301601f19908116603f011681019082821181831017156200020e576200020e62000367565b816040528381526020925086838588010111156200022b57600080fd5b600091505b838210156200024f578582018301518183018401529082019062000230565b83821115620002615760008385830101525b9695505050505050565b600080600080600060a086880312156200028457600080fd5b85516001600160401b03808211156200029c57600080fd5b620002aa89838a01620001b4565b96506020880151915080821115620002c157600080fd5b620002cf89838a01620001b4565b95506040880151915080821115620002e657600080fd5b50620002f588828901620001b4565b606088015190945090506001600160a01b03811681146200031557600080fd5b80925050608086015190509295509295909350565b600181811c908216806200033f57607f821691505b602082108114156200036157634e487b7160e01b600052602260045260246000fd5b50919050565b634e487b7160e01b600052604160045260246000fd5b611d01806200038d6000396000f3fe6080604052600436106101a35760003560e01c806370a08231116100e0578063b88d4fde11610084578063eebb28b211610061578063eebb28b21461049b578063f2fde38b146104b0578063f7073c3a146104d0578063fb1ace18146104e557005b8063b88d4fde14610412578063c87b56dd14610432578063e985e9c51461045257005b806395d89b41116100bd57806395d89b41146103bf5780639cbf9e36146103d4578063a0d1685c146103dc578063a22cb465146103f257005b806370a082311461036c578063715018a61461038c5780638da5cb5b146103a157005b806342842e0e1161014757806355f804b31161012457806355f804b3146103025780635b43bba1146103225780636352211e146103375780636c0360eb1461035757005b806342842e0e146102a2578063449a52f8146102c257806351431d4f146102e257005b8063095ea7b311610180578063095ea7b31461023b57806312e855851461025b57806323b872dd1461027a5780633ccfd60b1461029a57005b806301ffc9a7146101ac57806306fdde03146101e1578063081812fc1461020357005b366101aa57005b005b3480156101b857600080fd5b506101cc6101c73660046118ca565b6104fb565b60405190151581526020015b60405180910390f35b3480156101ed57600080fd5b506101f661054d565b6040516101d89190611a9c565b34801561020f57600080fd5b5061022361021e36600461194d565b6105df565b6040516001600160a01b0390911681526020016101d8565b34801561024757600080fd5b506101aa6102563660046118a0565b610679565b34801561026757600080fd5b50600a545b6040519081526020016101d8565b34801561028657600080fd5b506101aa6102953660046117ac565b61078f565b6101aa6107c0565b3480156102ae57600080fd5b506101aa6102bd3660046117ac565b610819565b3480156102ce57600080fd5b506101aa6102dd3660046118a0565b610834565b3480156102ee57600080fd5b50600f54610223906001600160a01b031681565b34801561030e57600080fd5b506101aa61031d366004611904565b610a31565b34801561032e57600080fd5b50600d5461026c565b34801561034357600080fd5b5061022361035236600461194d565b610a72565b34801561036357600080fd5b506101f6610ae9565b34801561037857600080fd5b5061026c610387366004611757565b610b77565b34801561039857600080fd5b506101aa610bfd565b3480156103ad57600080fd5b506000546001600160a01b0316610223565b3480156103cb57600080fd5b506101f6610c33565b6101aa610c42565b3480156103e857600080fd5b5061026c600d5481565b3480156103fe57600080fd5b506101aa61040d366004611864565b610d1a565b34801561041e57600080fd5b506101aa61042d3660046117e8565b610d25565b34801561043e57600080fd5b506101f661044d36600461194d565b610d5d565b34801561045e57600080fd5b506101cc61046d366004611779565b6001600160a01b03918216600090815260066020908152604080832093909416825291909152205460ff1690565b3480156104a757600080fd5b50600e5461026c565b3480156104bc57600080fd5b506101aa6104cb366004611757565b610e12565b3480156104dc57600080fd5b506101f6610eaa565b3480156104f157600080fd5b5061026c600e5481565b60006001600160e01b031982166380ac58cd60e01b148061052c57506001600160e01b03198216635b5e139f60e01b145b8061054757506301ffc9a760e01b6001600160e01b03198316145b92915050565b60606001805461055c90611bf3565b80601f016020809104026020016040519081016040528092919081815260200182805461058890611bf3565b80156105d55780601f106105aa576101008083540402835291602001916105d5565b820191906000526020600020905b8154815290600101906020018083116105b857829003601f168201915b5050505050905090565b6000818152600360205260408120546001600160a01b031661065d5760405162461bcd60e51b815260206004820152602c60248201527f4552433732313a20617070726f76656420717565727920666f72206e6f6e657860448201526b34b9ba32b73a103a37b5b2b760a11b60648201526084015b60405180910390fd5b506000908152600560205260409020546001600160a01b031690565b600061068482610a72565b9050806001600160a01b0316836001600160a01b031614156106f25760405162461bcd60e51b815260206004820152602160248201527f4552433732313a20617070726f76616c20746f2063757272656e74206f776e656044820152603960f91b6064820152608401610654565b336001600160a01b038216148061070e575061070e813361046d565b6107805760405162461bcd60e51b815260206004820152603e60248201527f4552433732313a20617070726f76652063616c6c6572206973206e6f7420746f60448201527f6b656e206f776e6572206e6f7220617070726f76656420666f7220616c6c00006064820152608401610654565b61078a8383610eb7565b505050565b6107993382610f25565b6107b55760405162461bcd60e51b815260040161065490611b36565b61078a838383610fa4565b6000546001600160a01b031633146107ea5760405162461bcd60e51b815260040161065490611b01565b60405133904780156108fc02916000818181858888f19350505050158015610816573d6000803e3d6000fd5b50565b61078a83838360405180602001604052806000815250610d25565b600f546001600160a01b031661088c5760405162461bcd60e51b815260206004820152601a60248201527f6c61756e63687061642061646472657373206d757374207365740000000000006044820152606401610654565b600f546001600160a01b031633146108df5760405162461bcd60e51b81526020600482015260166024820152751b5d5cdd0818d85b1b08189e481b185d5b98da1c185960521b6044820152606401610654565b6001600160a01b0382166109355760405162461bcd60e51b815260206004820152601b60248201527f63616e2774206d696e7420746f20656d707479206164647265737300000000006044820152606401610654565b600081116109855760405162461bcd60e51b815260206004820152601b60248201527f73697a65206d7573742067726561746572207468616e207a65726f00000000006044820152606401610654565b600d5481600e546109969190611b84565b11156109d95760405162461bcd60e51b81526020600482015260126024820152711b585e081cdd5c1c1b1e481c995858da195960721b6044820152606401610654565b60015b81811161078a576109f1600880546001019055565b60006109fc60085490565b9050610a088482611140565b600e8054906000610a1883611c2e565b9190505550508080610a2990611c2e565b9150506109dc565b6000546001600160a01b03163314610a5b5760405162461bcd60e51b815260040161065490611b01565b8051610a6e90600b90602084019061162c565b5050565b6000818152600360205260408120546001600160a01b0316806105475760405162461bcd60e51b815260206004820152602960248201527f4552433732313a206f776e657220717565727920666f72206e6f6e657869737460448201526832b73a103a37b5b2b760b91b6064820152608401610654565b600b8054610af690611bf3565b80601f0160208091040260200160405190810160405280929190818152602001828054610b2290611bf3565b8015610b6f5780601f10610b4457610100808354040283529160200191610b6f565b820191906000526020600020905b815481529060010190602001808311610b5257829003601f168201915b505050505081565b60006001600160a01b038216610be15760405162461bcd60e51b815260206004820152602960248201527f4552433732313a2061646472657373207a65726f206973206e6f7420612076616044820152683634b21037bbb732b960b91b6064820152608401610654565b506001600160a01b031660009081526004602052604090205490565b6000546001600160a01b03163314610c275760405162461bcd60e51b815260040161065490611b01565b610c316000611282565b565b60606002805461055c90611bf3565b600a54341015610c945760405162461bcd60e51b815260206004820181905260248201527f4552433732313a206d696e7420746f20746865207a65726f20616464726573736044820152606401610654565b610ca2600880546001019055565b6000610cad60085490565b9050600d54600e541115610cf85760405162461bcd60e51b81526020600482015260126024820152711b585e081cdd5c1c1b1e481c995858da195960721b6044820152606401610654565b610d0233826112d2565b600e8054906000610d1283611c2e565b919050555050565b610a6e3383836112ec565b610d2f3383610f25565b610d4b5760405162461bcd60e51b815260040161065490611b36565b610d57848484846113bb565b50505050565b6000818152600360205260409020546060906001600160a01b0316610ddd5760405162461bcd60e51b815260206004820152603060248201527f4552433732314d657461646174613a2055524920717565727920666f72206e6f60448201526f3732bc34b9ba32b73a103a37b5b2b71760811b6064820152608401610654565b600b610de8836113ee565b600c604051602001610dfc93929190611a2c565b6040516020818303038152906040529050919050565b6000546001600160a01b03163314610e3c5760405162461bcd60e51b815260040161065490611b01565b6001600160a01b038116610ea15760405162461bcd60e51b815260206004820152602660248201527f4f776e61626c653a206e6577206f776e657220697320746865207a65726f206160448201526564647265737360d01b6064820152608401610654565b61081681611282565b600c8054610af690611bf3565b600081815260056020526040902080546001600160a01b0319166001600160a01b0384169081179091558190610eec82610a72565b6001600160a01b03167f8c5be1e5ebec7d5bd14f71427d1e84f3dd0314c0f7b2291e5b200ac8c7c3b92560405160405180910390a45050565b600080610f3183610a72565b9050806001600160a01b0316846001600160a01b03161480610f7857506001600160a01b0380821660009081526006602090815260408083209388168352929052205460ff165b80610f9c5750836001600160a01b0316610f91846105df565b6001600160a01b0316145b949350505050565b826001600160a01b0316610fb782610a72565b6001600160a01b03161461101b5760405162461bcd60e51b815260206004820152602560248201527f4552433732313a207472616e736665722066726f6d20696e636f72726563742060448201526437bbb732b960d91b6064820152608401610654565b6001600160a01b03821661107d5760405162461bcd60e51b8152602060048201526024808201527f4552433732313a207472616e7366657220746f20746865207a65726f206164646044820152637265737360e01b6064820152608401610654565b611088600082610eb7565b6001600160a01b03831660009081526004602052604081208054600192906110b1908490611bb0565b90915550506001600160a01b03821660009081526004602052604081208054600192906110df908490611b84565b909155505060008181526003602052604080822080546001600160a01b0319166001600160a01b0386811691821790925591518493918716917fddf252ad1be2c89b69c2b068fc378daa952ba7f163c4a11628f55a4df523b3ef91a4505050565b6001600160a01b0382166111965760405162461bcd60e51b815260206004820181905260248201527f4552433732313a206d696e7420746f20746865207a65726f20616464726573736044820152606401610654565b6000818152600360205260409020546001600160a01b0316156111fb5760405162461bcd60e51b815260206004820152601c60248201527f4552433732313a20746f6b656e20616c7265616479206d696e746564000000006044820152606401610654565b6001600160a01b0382166000908152600460205260408120805460019290611224908490611b84565b909155505060008181526003602052604080822080546001600160a01b0319166001600160a01b03861690811790915590518392907fddf252ad1be2c89b69c2b068fc378daa952ba7f163c4a11628f55a4df523b3ef908290a45050565b600080546001600160a01b038381166001600160a01b0319831681178455604051919092169283917f8be0079c531659141344cd1fd0a4f28419497f9722a3daafe3b4186f6b6457e09190a35050565b610a6e8282604051806020016040528060008152506114ec565b816001600160a01b0316836001600160a01b0316141561134e5760405162461bcd60e51b815260206004820152601960248201527f4552433732313a20617070726f766520746f2063616c6c6572000000000000006044820152606401610654565b6001600160a01b03838116600081815260066020908152604080832094871680845294825291829020805460ff191686151590811790915591519182527f17307eab39ab6107e8899845ad3d59bd9653f200f220920489ca2b5937696c31910160405180910390a3505050565b6113c6848484610fa4565b6113d28484848461151f565b610d575760405162461bcd60e51b815260040161065490611aaf565b6060816114125750506040805180820190915260018152600360fc1b602082015290565b8160005b811561143c578061142681611c2e565b91506114359050600a83611b9c565b9150611416565b60008167ffffffffffffffff81111561145757611457611c9f565b6040519080825280601f01601f191660200182016040528015611481576020820181803683370190505b5090505b8415610f9c57611496600183611bb0565b91506114a3600a86611c49565b6114ae906030611b84565b60f81b8183815181106114c3576114c3611c89565b60200101906001600160f81b031916908160001a9053506114e5600a86611b9c565b9450611485565b6114f68383611140565b611503600084848461151f565b61078a5760405162461bcd60e51b815260040161065490611aaf565b60006001600160a01b0384163b1561162157604051630a85bd0160e11b81526001600160a01b0385169063150b7a0290611563903390899088908890600401611a5f565b602060405180830381600087803b15801561157d57600080fd5b505af19250505080156115ad575060408051601f3d908101601f191682019092526115aa918101906118e7565b60015b611607573d8080156115db576040519150601f19603f3d011682016040523d82523d6000602084013e6115e0565b606091505b5080516115ff5760405162461bcd60e51b815260040161065490611aaf565b805181602001fd5b6001600160e01b031916630a85bd0160e11b149050610f9c565b506001949350505050565b82805461163890611bf3565b90600052602060002090601f01602090048101928261165a57600085556116a0565b82601f1061167357805160ff19168380011785556116a0565b828001600101855582156116a0579182015b828111156116a0578251825591602001919060010190611685565b506116ac9291506116b0565b5090565b5b808211156116ac57600081556001016116b1565b600067ffffffffffffffff808411156116e0576116e0611c9f565b604051601f8501601f19908116603f0116810190828211818310171561170857611708611c9f565b8160405280935085815286868601111561172157600080fd5b858560208301376000602087830101525050509392505050565b80356001600160a01b038116811461175257600080fd5b919050565b60006020828403121561176957600080fd5b6117728261173b565b9392505050565b6000806040838503121561178c57600080fd5b6117958361173b565b91506117a36020840161173b565b90509250929050565b6000806000606084860312156117c157600080fd5b6117ca8461173b565b92506117d86020850161173b565b9150604084013590509250925092565b600080600080608085870312156117fe57600080fd5b6118078561173b565b93506118156020860161173b565b925060408501359150606085013567ffffffffffffffff81111561183857600080fd5b8501601f8101871361184957600080fd5b611858878235602084016116c5565b91505092959194509250565b6000806040838503121561187757600080fd5b6118808361173b565b91506020830135801515811461189557600080fd5b809150509250929050565b600080604083850312156118b357600080fd5b6118bc8361173b565b946020939093013593505050565b6000602082840312156118dc57600080fd5b813561177281611cb5565b6000602082840312156118f957600080fd5b815161177281611cb5565b60006020828403121561191657600080fd5b813567ffffffffffffffff81111561192d57600080fd5b8201601f8101841361193e57600080fd5b610f9c848235602084016116c5565b60006020828403121561195f57600080fd5b5035919050565b6000815180845261197e816020860160208601611bc7565b601f01601f19169290920160200192915050565b8054600090600181811c90808316806119ac57607f831692505b60208084108214156119ce57634e487b7160e01b600052602260045260246000fd5b8180156119e257600181146119f357611a20565b60ff19861689528489019650611a20565b60008881526020902060005b86811015611a185781548b8201529085019083016119ff565b505084890196505b50505050505092915050565b6000611a388286611992565b8451611a48818360208901611bc7565b611a5481830186611992565b979650505050505050565b6001600160a01b0385811682528416602082015260408101839052608060608201819052600090611a9290830184611966565b9695505050505050565b6020815260006117726020830184611966565b60208082526032908201527f4552433732313a207472616e7366657220746f206e6f6e20455243373231526560408201527131b2b4bb32b91034b6b83632b6b2b73a32b960711b606082015260800190565b6020808252818101527f4f776e61626c653a2063616c6c6572206973206e6f7420746865206f776e6572604082015260600190565b6020808252602e908201527f4552433732313a2063616c6c6572206973206e6f7420746f6b656e206f776e6560408201526d1c881b9bdc88185c1c1c9bdd995960921b606082015260800190565b60008219821115611b9757611b97611c5d565b500190565b600082611bab57611bab611c73565b500490565b600082821015611bc257611bc2611c5d565b500390565b60005b83811015611be2578181015183820152602001611bca565b83811115610d575750506000910152565b600181811c90821680611c0757607f821691505b60208210811415611c2857634e487b7160e01b600052602260045260246000fd5b50919050565b6000600019821415611c4257611c42611c5d565b5060010190565b600082611c5857611c58611c73565b500690565b634e487b7160e01b600052601160045260246000fd5b634e487b7160e01b600052601260045260246000fd5b634e487b7160e01b600052603260045260246000fd5b634e487b7160e01b600052604160045260246000fd5b6001600160e01b03198116811461081657600080fdfea2646970667358221220a3047045113a91c6b0acd10b1ff57063a2fc1c360333dec30e244d69c5b4890e64736f6c63430008070033",
  "linkReferences": {},
  "deployedLinkReferences": {}
}